{
  "contractName": "DocTimeStamp",
  "abi": [
    {
      "inputs": [],
      "stateMutability": "nonpayable",
      "type": "constructor"
    },
    {
      "anonymous": false,
      "inputs": [
        {
          "indexed": false,
          "internalType": "string",
          "name": "_uuid",
          "type": "string"
        },
        {
          "indexed": false,
          "internalType": "string",
          "name": "_docId",
          "type": "string"
        },
        {
          "indexed": false,
          "internalType": "string",
          "name": "_sha256",
          "type": "string"
        }
      ],
      "name": "NewCertificateIssue",
      "type": "event"
    },
    {
      "inputs": [
        {
          "internalType": "string",
          "name": "_uuid",
          "type": "string"
        },
        {
          "internalType": "string",
          "name": "_docId",
          "type": "string"
        },
        {
          "internalType": "string",
          "name": "_sha256",
          "type": "string"
        }
      ],
      "name": "issueCertificate",
      "outputs": [],
      "stateMutability": "nonpayable",
      "type": "function"
    },
    {
      "inputs": [
        {
          "internalType": "string",
          "name": "_uuid",
          "type": "string"
        }
      ],
      "name": "getByUUID",
      "outputs": [
        {
          "internalType": "string",
          "name": "",
          "type": "string"
        },
        {
          "internalType": "string",
          "name": "",
          "type": "string"
        },
        {
          "internalType": "string",
          "name": "",
          "type": "string"
        }
      ],
      "stateMutability": "view",
      "type": "function"
    }
  ],
  "bytecode": "0x608060405234801561001057600080fd5b50336000806101000a81548173ffffffffffffffffffffffffffffffffffffffff021916908373ffffffffffffffffffffffffffffffffffffffff160217905550610911806100606000396000f3fe608060405234801561001057600080fd5b50600436106100365760003560e01c8063beec1caa1461003b578063f3f9adb114610057575b600080fd5b610055600480360381019061005091906105d2565b610089565b005b610071600480360381019061006c9190610679565b6101f0565b6040516100809392919061074a565b60405180910390f35b60008054906101000a900473ffffffffffffffffffffffffffffffffffffffff1673ffffffffffffffffffffffffffffffffffffffff163373ffffffffffffffffffffffffffffffffffffffff1614610117576040517f08c379a000000000000000000000000000000000000000000000000000000000815260040161010e90610808565b60405180910390fd5b60006040518060600160405280858152602001848152602001838152509050806001856040516101479190610864565b908152602001604051809103902060008201518160000190805190602001906101719291906103d5565b50602082015181600101908051906020019061018e9291906103d5565b5060408201518160020190805190602001906101ab9291906103d5565b509050507fd7d718a05058f1718ccd47dc490bec451da9a4a2085ef7294a81cab36221aff28484846040516101e29392919061074a565b60405180910390a150505050565b606080606060006001856040516102079190610864565b9081526020016040518091039020905080600001816001018260020182805461022f906108aa565b80601f016020809104026020016040519081016040528092919081815260200182805461025b906108aa565b80156102a85780601f1061027d576101008083540402835291602001916102a8565b820191906000526020600020905b81548152906001019060200180831161028b57829003601f168201915b505050505092508180546102bb906108aa565b80601f01602080910402602001604051908101604052809291908181526020018280546102e7906108aa565b80156103345780601f1061030957610100808354040283529160200191610334565b820191906000526020600020905b81548152906001019060200180831161031757829003601f168201915b50505050509150808054610347906108aa565b80601f0160208091040260200160405190810160405280929190818152602001828054610373906108aa565b80156103c05780601f10610395576101008083540402835291602001916103c0565b820191906000526020600020905b8154815290600101906020018083116103a357829003601f168201915b50505050509050935093509350509193909250565b8280546103e1906108aa565b90600052602060002090601f016020900481019282610403576000855561044a565b82601f1061041c57805160ff191683800117855561044a565b8280016001018555821561044a579182015b8281111561044957825182559160200191906001019061042e565b5b509050610457919061045b565b5090565b5b8082111561047457600081600090555060010161045c565b5090565b6000604051905090565b600080fd5b600080fd5b600080fd5b600080fd5b6000601f19601f8301169050919050565b7f4e487b7100000000000000000000000000000000000000000000000000000000600052604160045260246000fd5b6104df82610496565b810181811067ffffffffffffffff821117156104fe576104fd6104a7565b5b80604052505050565b6000610511610478565b905061051d82826104d6565b919050565b600067ffffffffffffffff82111561053d5761053c6104a7565b5b61054682610496565b9050602081019050919050565b82818337600083830152505050565b600061057561057084610522565b610507565b90508281526020810184848401111561059157610590610491565b5b61059c848285610553565b509392505050565b600082601f8301126105b9576105b861048c565b5b81356105c9848260208601610562565b91505092915050565b6000806000606084860312156105eb576105ea610482565b5b600084013567ffffffffffffffff81111561060957610608610487565b5b610615868287016105a4565b935050602084013567ffffffffffffffff81111561063657610635610487565b5b610642868287016105a4565b925050604084013567ffffffffffffffff81111561066357610662610487565b5b61066f868287016105a4565b9150509250925092565b60006020828403121561068f5761068e610482565b5b600082013567ffffffffffffffff8111156106ad576106ac610487565b5b6106b9848285016105a4565b91505092915050565b600081519050919050565b600082825260208201905092915050565b60005b838110156106fc5780820151818401526020810190506106e1565b8381111561070b576000848401525b50505050565b600061071c826106c2565b61072681856106cd565b93506107368185602086016106de565b61073f81610496565b840191505092915050565b600060608201905081810360008301526107648186610711565b905081810360208301526107788185610711565b9050818103604083015261078c8184610711565b9050949350505050565b7f4f6e6c792063726561746f7220697320616c6c6f77656420746f2063616c6c2060008201527f746869732066756e6374696f6e00000000000000000000000000000000000000602082015250565b60006107f2602d836106cd565b91506107fd82610796565b604082019050919050565b60006020820190508181036000830152610821816107e5565b9050919050565b600081905092915050565b600061083e826106c2565b6108488185610828565b93506108588185602086016106de565b80840191505092915050565b60006108708284610833565b915081905092915050565b7f4e487b7100000000000000000000000000000000000000000000000000000000600052602260045260246000fd5b600060028204905060018216806108c257607f821691505b6020821081036108d5576108d461087b565b5b5091905056fea26469706673582212207954236d175eedad0f3856c13f8f8977e701bdad8c0ff04e3470538d5301d04864736f6c634300080d0033",
  "immutableReferences": {},
  "source": "// SPDX-License-Identifier: GPL-3.0\npragma solidity >=0.7.0 <0.9.0;\n\ncontract DocTimeStamp {\n    struct Certificate {\n        string uuid;\n        string sha256;\n        string docId;\n    }\n\n    address private creator;\n    mapping(string => Certificate) certificates;\n\n    constructor() {\n        creator = msg.sender;\n    }\n\n    modifier onlyOwner {\n        require(msg.sender == creator, \"Only creator is allowed to call this function\");\n        _;\n    }\n\n    event NewCertificateIssue(string _uuid, string _docId, string _sha256);\n\n    function issueCertificate(\n        string memory _uuid,\n        string memory _docId,\n        string memory _sha256\n        ) public onlyOwner {\n            Certificate memory certificate = Certificate(_uuid, _docId, _sha256);\n            certificates[_uuid] = certificate;\n\n            emit NewCertificateIssue(_uuid, _docId, _sha256);\n    }\n\n    function getByUUID(string memory _uuid)\n        public\n        view\n        returns (\n            string memory,\n            string memory,\n            string memory) {\n                Certificate storage out = certificates[_uuid];\n                return (out.uuid, out.sha256, out.docId);\n    }\n}",
  "sourcePath": "/Users/navitas28/Work/ET/timestamp/contracts/IProtect.sol",
  "compiler": {
    "name": "solc",
    "version": "0.8.13+commit.abaa5c0e.Emscripten.clang"
  },
  "schemaVersion": "3.4.7",
  "updatedAt": "2022-06-27T09:20:28.648Z",
  "devdoc": {
    "kind": "dev",
    "methods": {},
    "version": 1
  },
  "userdoc": {
    "kind": "user",
    "methods": {},
    "version": 1
  }
}